:020000040800F2
:10000000B00F0020290200083330000859250008ED
:1000100031300008A5040008A13F000800000000DE
:100020000000000000000000000000002937000868
:100030007D05000800000000F3350008C537000802
:10004000430200084302000843020008430200087C
:10005000430200084302000843020008430200086C
:10006000430200084302000843020008430200085C
:10007000430200084302000843020008430200084C
:10008000A9040008B5040008430200084302000860
:10009000430200084302000843020008430200082C
:1000A000430200084302000843020008430200081C
:1000B000430200084302000843020008430200080C
:1000C00043020008430200084302000843020008FC
:1000D00043020008893F0008953F000843020008DA
:1000E00043020008430200084302000843020008DC
:1000F00043020008430200084302000843020008CC
:1001000043020008430200084302000843020008BB
:100110004302000843020008713800084302000847
:100120004302000843020008C1040008430200081B
:10013000430200084302000843020008430200088B
:10014000430200084302000843020008430200087B
:100150004302000843020008CD04000843020008DF
:10016000430200084302000843020008430200085B
:100170004302000843020008430200080000000098
:10018000430200084302000800F002F800F03CF8C7
:100190000AA090E8000C82448344AAF10107DA45E2
:1001A00001D100F031F8AFF2090EBAE80F0013F0F8
:1001B000010F18BFFB1A43F001031847CC6A000077
:1001C000EC6A0000103A24BF78C878C1FAD8520708
:1001D00024BF30C830C144BF04680C6070470000C1
:1001E0000023002400250026103A28BF78C1FBD840
:1001F000520728BF30C148BF0B6070471FB504F0DD
:10020000BCFD1FBD10B510BD00F0D4F81146FFF7BE
:10021000F5FF03F00BFF00F0F2F803B4FFF7F2FF75
:1002200003BC00F0F5F80000094880470948004782
:10023000FEE7FEE7FEE7FEE7FEE7FEE7FEE7FEE796
:10024000FEE7FEE704480549054A064B70470000F3
:100250006138000889010008B0090020B00F0020B3
:10026000B00B0020B00B002053EA020C00F06980B4
:100270002DE9F04B4FF00006002B1FBFB3FA83F5BA
:1002800003FA05F424FA05F65E4012BF1643B2FAEB
:1002900082F502FA05F4C5F120051EBF22FA05FC1D
:1002A00044EA0C04203556EA044C4FEA144418BFC3
:1002B000641C4FF000084FF00009904271EB030CF2
:1002C00039D3002919BFB1FA81F701FA07F6B0FA5C
:1002D00080F700FA07F6C7F120071EBF20FA07FCD7
:1002E00046EA0C062037B6FBF4FCA7EB0507103FE7
:1002F00007F01F0BCBF120060CFA0BFB2CFA06F6CD
:1003000044BFB3460026202FA4BF5E464FF0000B2B
:100310005BEA060C08BF4FF0010B19EB0B09ABFBB6
:10032000027C48EB0608C01B06FB02CC0BFB03CC8F
:1003300071EB0C01C1E70B46024641464846BDE859
:10034000F08B13B54FF000004FF00001AFF30080C9
:10035000BDE81C4070474FF0000200B513469446BC
:100360009646203922BFA0E80C50A0E80C50B1F10D
:100370002001BFF4F7AF090728BFA0E80C5048BF21
:100380000CC05DF804EB890028BF40F8042B08BFBF
:10039000704748BF20F8022B11F0804F18BF00F8BB
:1003A000012B704770477047704700000048704746
:1003B0004C0900207546FFF7F9FFAE460500694677
:1003C000534620F00700854618B020B5FFF73AFFE6
:1003D000BDE820404FF000064FF000074FF0000846
:1003E0004FF0000B21F00701AC46ACE8C009ACE8C7
:1003F000C009ACE8C009ACE8C0098D46704710B52B
:100400000446AFF300802046BDE81040FFF705BF6B
:1004100001491820ABBEFEE726000200704700002D
:10042000FFB41E48AA2208230270FF224270F22263
:100430008270C3709DF8002002719DF80120427106
:100440009DF8042082719DF80520C2719DF8082056
:1004500002729DF8092042729DF80C2082720024DD
:100460009DF80D20C2720C22254621461B1D06E078
:10047000465C491C3444E4B22544EDB2C9B28B4217
:10048000F6D88454521C4FF6FF73855404B00349C8
:10049000F0BC0348521C02F005B80000E808002038
:1004A00094010020FEE70000014800F033B900008D
:1004B000F8020020014800F02DB900009802002049
:1004C000014800F027B9000038020020014800F080
:1004D00021B90000D801002001681823CAB2103ADF
:1004E000B2FBF3F2054B6FF30901032A9B5CC36572
:1004F00000D9091D81650846704700008E4D00082F
:1005000010B5014600208B698A6A4FF0C07453B160
:10051000B3F5005F15D072B1012A0CD0022A0AD0BF
:10052000032A09D104E01AB1012A06D0022A03D114
:10053000C96AC90100D5012010BDC96AA142FAD01B
:1005400010BD002AF7D0012AF2D0022AF3D0032AE4
:10055000F3D010BD30B50468256825F480252560EA
:10056000046863608368402B036803D09960006867
:10057000C26030BD9A600068C16030BD7047000045
:1005800003480168486A002200B24A6270470000CE
:100590001800002003480168486A002200B24A623D
:1005A000704700006000002072B6FEE770B50D468F
:1005B0002DED068B0446FFF7E3FF10FB05F0C0EBC3
:1005C000001080004FF4826690FBF6F0E085FFF7A4
:1005D000E1FF10FB05F0C0EB0010800090FBF6F08F
:1005E00005B2A4F86250B4F92E0004F0C4F89FEDEF
:1005F000158B53EC182B04F025F99FED149B53EC4D
:10060000192B04F01FF99FED13AB53EC1A2B03F0D9
:100610002DFF03F045FE2063284604F0ACF853ECB0
:10062000182B04F00FF953EC192B04F00BF953ECD1
:100630001A2B03F01BFF03F033FE6066BDEC068B44
:1006400070BD00000AD7A3703D0AA73F1F85EB517C
:10065000B81E09400000000000004E402DE9F041A6
:100660000446876D00F0C6FA064694F8350000256A
:10067000022806D08020606584F834500120BDE84F
:10068000F0812068016821F016010160206841694D
:1006900021F080014161206C08B9A06C20B1206874
:1006A000016821F0080101602068016821F0010162
:1006B00001600CE000F09EFA801B052807D920207D
:1006C0006065032084F8350084F83450D7E720684B
:1006D0000068C007EED194F85C103F208840B860F5
:1006E000012084F8350084F834500020C7E790F8E2
:1006F0003510022903D08021416501207047052172
:1007000080F835100068016821F0010101600020C7
:10071000704700002DE9F84304464FF00009CDF87A
:10072000009063484FF41651A56D0068B0FBF1F7D7
:100730002E6894F85C10082000FA01F131420FD0C5
:1007400021680A6852070BD50A6822F004020A6081
:1007500094F85C108840A860606D40F0010060650E
:1007600094F85C104FF0010808FA01F0304208D00C
:1007700021684969090604D5A860606D40F002004F
:10078000606594F85C1004208840304208D02168ED
:100790000968890704D5A860606D40F004006065B1
:1007A00094F85C1010208840304218D02168096805
:1007B000090714D5A86020680168490304D50068BA
:1007C000000308D5A16C07E00168C90503D40168DE
:1007D00021F008010160216C09B12046884794F896
:1007E0005C1020208840304231D021680968C90659
:1007F0002DD5A86094F8350005282068016806D03A
:10080000490347D5006800031DD4616C1CE021F04A
:10081000160101602068416921F080014161206C6E
:1008200008B9A06C20B12068016821F008010160BE
:1008300094F85C103F208840A86084F8358084F8E4
:100840003490216D1FE0E16B09B120468847606D4F
:1008500000282BD0606DC00714D0052084F8350027
:100860002068016821F0010101600098401C00909F
:10087000B84203D820680068C007F6D184F83580F4
:1008800084F83490E16C002910D001B02046BDE816
:10089000F04308470168C905D5D4016821F010016B
:1008A000016084F8358084F83490CCE7BDE8F883A3
:1008B000100000202DE9F041044600F09BF90646A7
:1008C0005CB1022084F83500002584F8345020689B
:1008D000016821F0010101600DE00120BDE8F08117
:1008E00000F088F9801B052805D9202060650320C9
:1008F00084F83500F2E720680068C007F0D122686C
:10090000116820480140D4E901031843D4E90336B3
:100910003343184363691843A3691843E3691843D1
:10092000236A18430843616A042903D1D4E90B13ED
:1009300019430843106020684069666A20F0070187
:1009400030460E43012704280CD1A06A0643E06A12
:1009500040B12046FFF7D4FD20B14020606584F807
:100960003570BAE7206846612046FFF7B5FD94F878
:100970005C203F2191408160656584F835700020DE
:10098000ACE700003F8010F02DE9F0410446866D91
:1009900090F83400002501280DD0012084F834009F
:1009A00094F835700020012F07D084F83400022518
:1009B0002846BDE8F0810220FBE7022784F8357065
:1009C00060652046FFF7C6FD94F85C103F20884024
:1009D000B0602068016841F016010160206C20B110
:1009E0002068016841F0080101602068016841F059
:1009F00001010160DCE700002DE9F84FDFF8BCA140
:100A00000022012503264FF00F090AF1040BAAF179
:100A1000040E00BF0B6805FA02F42340A34270D114
:100A20000F7907F00307012F01D0022F16D1876835
:100A30004FEA420806FA08FC27EA0C07D1F80CC076
:100A40000CFA08FC4CEA070CC0F808C04768A7433A
:100A50000C79C4F3001494403C4344600C79E443A3
:100A6000A4070AD0C4684FEA420C06FA0CF7BC434C
:100A70008F6807FA0CF72743C7600C7904F003046A
:100A8000022C12D1D40800EB840CDCF8204057076C
:100A9000FF0E09FA07F824EA0804D1F8108008FAD2
:100AA00007F848EA0408CCF8208004684FEA420CB2
:100AB00006FA0CF7BC430F7907F0030707FA0CF7A7
:100AC000274307604C6814F4403F70D03C4C2768C3
:100AD00047F480472760246822F0030704F4804429
:100AE0000094384C07EB040CDCF8084897074FEAF1
:100AF000177809FA08F7BC43334FB84202D10027F0
:100B000024E054E0314FB84201D101271EE0304FBC
:100B1000B84201D1022719E02E4FB84201D1032774
:100B200014E02D4FB84201D104270FE02B4FB842FB
:100B300001D105270AE02A4FB84201D1062705E076
:100B4000284FB84201D1072700E0082707FA08F725
:100B50002743CCF80878DAF800405746D1F804C0AB
:100B60009C435FEACC2C00D51C433C60DBF8004082
:100B70005F46D1F804C09C435FEA8C2C00D51C432F
:100B80003C60DEF800407746D1F804C09C435FEA41
:100B90008C3C00D51C433C60084F083F3C68D1F8B2
:100BA00004C09C435FEACC3C00D51C433C60521C13
:100BB000102AFFF42FAFBDE8F88F0000083C014079
:100BC000443802400030014000000240000402406E
:100BD00000080240000C02400010024000140240D5
:100BE00000180240001C02400AB1816170470904EC
:100BF000FBE7000001488068704700000400002007
:100C00000248816802781144816070470400002026
:100C10000B4810B5016841F400710160016841F4AE
:100C200080610160016841F480710160032000F07F
:100C30006FF80F2000F006F800F024F8002010BD37
:100C4000003C024070B50D4D04464FF47A7128788F
:100C5000B1FBF0F00A490968B1FBF0F000F0C5FC07
:100C600048B9102C07D200222146501E00F030F85F
:100C700000206C6070BD012070BD000004000020E9
:100C8000100000200A4808B5016841F48041016065
:100C9000006800F4804000900548001F016841F0A2
:100CA00080510160006800F08050009008BD000095
:100CB00044380240002809DB00F01F020121914066
:100CC0004009800000F1E020C0F8001170470000EA
:100CD000F0B40E4B1B680C46C3F30223C3F10705A7
:100CE000042D00D90425191D072901D2002300E095
:100CF000DB1E012606FA05F1491E214099409E405F
:100D0000761E16403143F0BC03F04BB90CED00E009
:100D1000064900F0070208684FF6FF03184040EA52
:100D20000220034A10430860704700000CED00E009
:100D30000000FA052DE9F0470E46050065D0DFF802
:100D40001481D8F80000F7B200F00700B04207D2D3
:100D500088F80070D8F8000000F00700B04254D1C5
:100D600028683D4C810712D5400703D5206840F420
:100D7000E05020602878000703D5206840F46040E8
:100D800020602068A96820F0F000084320602878DF
:100D9000C0072DD0304968680839012812D00228D0
:100DA00013D0032811D00968890700292DDA21689A
:100DB00021F0030101432160FFF71CFF814641F24E
:100DC000883A0EE009688903EFE709688901ECE7D2
:100DD000FFF710FFA0EB0901514502D90320BDE840
:100DE000F0872068696800F00C00B0EB810FEFD14C
:100DF000D8F80010404601F00701B14207D907704A
:100E0000006800F00700B04201D00120E7E7287831
:100E1000400705D52068E96820F4E05008432060C9
:100E20002878000706D52068296920F4604040EA48
:100E3000C100206000F038F82168084AC1F30311AE
:100E4000515CC8400649086006480068FFF7FAFE92
:100E50000020C4E7003C024008380240964D0008DC
:100E600010000020080000200448054900680968B7
:100E7000044AC1F38221515CC84070471000002031
:100E800008380240A64D0008044805490068096872
:100E9000044AC1F34231515CC84070471000002041
:100EA00008380240A64D0008154810B5006810F03B
:100EB0000C02144813D01449042A0FD0082A0ED16A
:100EC0000F4C241F2268236802F03F025B0207D503
:100ED0002068C0F38810A0FB010106E0084610BDA1
:100EE0002168C1F38811A1FB00010023FFF7BCF9C1
:100EF0002168C1F30141491C4900B0FBF1F010BD6C
:100F0000083802400024F40040787D012DE9F84FB4
:100F100004006ED02078DFF84C93C007A9F10405D7
:100F20004AD009F104000168C1F38101012908D008
:100F30000068C0F3810002280AD1D9F800004002FD
:100F400006D52868800337D560680028E1D033E0F3
:100F50006068B0F5803F10D0B0F5A02F286810D0A1
:100F600020F480302860286820F4802028606068A1
:100F7000A8B1FFF73FFE06460DE0286840F4803038
:100F8000F4E740F480202860F7E700BFFFF732FE67
:100F9000801B642873D828688003F7D50CE0FFF71E
:100FA00029FE064605E000BFFFF724FE801B6428EB
:100FB000F0D828688003F7D42078DFF8AC82800767
:100FC0004FF0000A3ED5A748001D016811F00C0F34
:100FD00008D00068C0F3810002280BD1D9F80000C6
:100FE000400207D42868800716D5E068012800D1A0
:100FF00012E033E1E068B8B10120C8F80000FFF763
:10100000F9FD064605E000BFFFF7F4FD801B02284E
:10101000C0D828688007F7D52868216920F0F80033
:1010200040EAC10028600DE0C8F800A0FFF7E2FD2B
:10103000064604E0FFF7DEFD801B02281FD8286863
:101040008007F7D42078000722D5864F874861694A
:10105000703771B101210160FFF7CCFD064604E055
:10106000FFF7C8FD801B022809D838688007F7D52C
:101070000EE0C0F800A0FFF7BDFD064605E082E0E7
:10108000FFF7B8FD801B02287DD838688007F7D4A9
:101090002078400768D5DFF8CCB100270BF13C0B76
:1010A000DBF80000C0000BD4DBF8001041F08051E9
:1010B000CBF80010DBF80000012700F08050009012
:1010C0006B4E3068C00510D4306840F480703060DA
:1010D000FFF790FD009005E0FFF78CFD0099401AA6
:1010E000022850D83068C005F6D55E4EA0686C3630
:1010F00001280FD00528306810D020F001003060A2
:10110000306820F004003060A068B8B1FFF772FDCD
:1011100000900FE0306840F00100F4E740F0040078
:101120003060F7E7FFF766FD0099411A41F2883019
:10113000814266D830688007F4D50EE0FFF75AFD8B
:10114000009007E0FFF756FD0099411A41F2883000
:10115000814256D830688007F4D42FB1DBF80010F4
:1011600021F08051CBF80010A069C8B33D49091D9A
:101170000968C1F3810102294AD00228504607D0EC
:10118000C8F8600000E03CE0FFF734FD04463BE0B7
:101190004746C8F86000FFF72DFD064605E000BF92
:1011A000FFF728FD801B02282BD828688001F7D480
:1011B000D4E907010843A16A2E4A490802EB01411C
:1011C000626A41EA8211084394F82C1040EA0161F6
:1011D000C9F8001001203866FFF70CFD044606E050
:1011E0003EE000BFFFF706FD001B022809D8286873
:1011F0008001F7D534E000BFFFF7FCFC001B02289C
:1012000002D90320BDE8F88F28688001F4D427E0D4
:101210000128F7D0D9F80000E26900F4800191427A
:101220001CD1226A00F03F01914217D147F6C071EC
:10123000626A0140B1EB821F10D1A26A4FF0FF3306
:1012400000F4403103EB5202B1EB024F06D194F8A7
:101250002C1000F07060B0EB016F01D00120D1E7DD
:101260000020CFE70438024000004742800E47428A
:10127000007000400000FFFF70B5040009D0606AF4
:10128000002540B125616561A56294F8510040B127
:101290000CE0012070BD6068B0F5827FF4D0E5619C
:1012A000F2E784F85050204600F044F8022084F819
:1012B00051002068016821F040010160A088218967
:1012C00000F4827001F404410843A18901F4006133
:1012D0000843217C01F002010843217D01F0010156
:1012E0000843218B01F400710843217F01F038018C
:1012F000084394F8201001F080010843218D01F487
:101300000051084321680860A069042101EA1040E7
:1013100094F8241001F01001084321684860206807
:10132000C16921F40061C1616565012084F8510043
:10133000002070BD2DE9F04186B0064614216846B4
:10134000FFF709F82B49306888424FD12A4800241A
:10135000016841F480510160006800F480500590FC
:1013600025481438016841F00201016000686946AF
:1013700000F002000590382000900220CDE9010421
:1013800003200390052004901C48FFF735FB1D4DFA
:101390001B484FF0C067E5E8020740204FF4806823
:1013A000A5E81101174845F81449AC61EC612C62BD
:1013B0006C62FFF77FFA08B1FFF7F6F8B564AE6329
:1013C000104D0F48603548382860C5E90174C5E9FB
:1013D00003486C61AC61EC612C6228466C62FFF7DB
:1013E00069FA08B1FFF7E0F8F564AE6306B0BDE84E
:1013F000F081000000300140443802400004024007
:1014000058640240B00300202DE9F84F044690F8DC
:10141000500000270A9E1D4692468B464FF0010958
:1014200001280ED0012084F85000FFF7E3FB80462E
:1014300094F85100616801280CD0B1F5827F07D182
:1014400002E00220BDE8F88FA16809B9042801D0A4
:101450000227C2E0BBF1000F27D0BAF1000F24D061
:101460001DB394F85100042802D0052084F85100DF
:1014700000206065C4F838A0E587A587C4F830B0BF
:10148000E586A5862064606420680168490603D467
:10149000016841F040010160E068B0F5006F6068EC
:1014A00005D0E8B3012D46D07FE0012795E008B1D3
:1014B000012D39D1206B21680088C860206B801C09
:1014C0002063E08E401EE0862EE020688168890758
:1014D0000FD5E18E69B1B9F1010F0AD1216B0988ED
:1014E000C160206B801C2063E08E401EE0864FF0C0
:1014F000000920688168C9070CD0E18F51B1C0682C
:10150000A16B0880A06B801CA063E08F401EE08769
:101510004FF00109FFF76EFBA0EB0800B04200E0BE
:1015200009E001D3701C50D1E08E0028CDD1E08FAE
:101530000028CAD13FE0206B216800780873206B37
:10154000401C2063E08E401EE0862EE0206881680B
:1015500089070FD5E18E69B1B9F1010F0AD1216B6D
:1015600009780173206B401C2063E08E401EE086EA
:101570004FF0000920688168C9070CD0E18F51B194
:10158000C068A16B0870A06B401CA063E08F401E78
:10159000E0874FF00109FFF72DFBA0EB0800B042F8
:1015A00002D3701C01D010E07EB1E08E0028CDD1B6
:1015B000E08F0028CAD142463146204602F02CF87E
:1015C00028B101272020606507E0032705E0A06817
:1015D00018B92068C16880680090012084F8510023
:1015E000002084F8500038462CE710B5401EB0F1BA
:1015F000807F01D3012010BD4FF0E02460610F21F6
:10160000601702F0CEFC0020A061072020610020BE
:1016100010BD70477047000070B590F83C20012A5B
:1016200032D0012480F83C40022280F83D2003683B
:101630005A689D6822F070060A6832435A60134B5C
:1016400002689A4214D0B2F1804F11D0104B9A42E6
:101650000ED0104B9A420BD00F4B9A4208D00F4B32
:101660009A4205D00E4B9A4202D00E4B9A4204D1B8
:10167000496825F080031943916080F83D400021BE
:1016800080F83C10084670BD022070BD000001408B
:101690000004004000080040000C0040000401402D
:1016A000004001400018004010B5040003D094F839
:1016B0003D0010B107E0012010BD002084F83C007F
:1016C000204600F01FF8022084F83D00211D20680C
:1016D00002F0D4F8012084F8460084F83E0084F833
:1016E0003F0084F8400084F8410084F8420084F808
:1016F000430084F8440084F8450084F83D0000204D
:1017000010BD000008B5114A01681148914208D186
:10171000016841F004010160006800F004000090DD
:1017200008BD0C4A9142FBD1016841F010010160F3
:101730000068002200F01000009001213620FFF721
:10174000C7FABDE808403620FFF7B4BA00080040E9
:10175000403802400010004090F83D10012901D0AF
:1017600001207047022180F83D100168CA6842F0EC
:101770000102CA6000681149884214D0B0F1804F5C
:1017800011D00F4988420ED00E4988420BD00E4925
:10179000884208D00D49884205D00D49884202D0C0
:1017A0000C49884204D1816801F00701062903D061
:1017B000016841F001010160002070470000014014
:1017C0000004004000080040000C004000040140FC
:1017D000004001400018004070B5044690F83C00FD
:1017E0000025012817D0012684F83C60022084F8E7
:1017F0003D002068826822F0770222F47F428260F6
:101800000868502838D00DDC20284FD005DC90B374
:10181000102811D14AE0022070BD302846D040285F
:101820000AD13BE060282FD070280DD0B0F5805F42
:1018300003D0B0F5005F12D0012584F83D60002090
:1018400084F83C00284670BDCB68D1E901212068AE
:1018500002F085F82068816841F0770109E0CB68E3
:10186000D1E90121206802F07AF82068816841F40A
:1018700080418160E1E719E0CA684968206802F0A8
:1018800043F95021206806E0CA684968206802F0E0
:101890004CF96021206802F06CF8CEE7CA6849680C
:1018A000206802F031F940212068F4E722680146FF
:1018B0001046F0E72DE9F0410D46040003D094F8FE
:1018C0003D0018B108E00120BDE8F081002084F857
:1018D0003C00204600F040F8022084F83D002068DB
:1018E000816844F2070291438160211D206801F064
:1018F000C5FF226890689169166A2B68AF69034337
:1019000040F20330814341EA0721A868EF690843A8
:101910004FF6FC418843E96840EA07200143286903
:101920002F6A000140EA0730084369686D6926F0B4
:10193000AA0646EA0515294393602268906154F887
:10194000460B0162012004F81F09E0752076E0765D
:101950002077A0750020B7E7F0B587B004461421C2
:101960006846FEF7F8FC1E4926681D4A1039022316
:10197000012403251B48B6F1804F1BD01A4FBE42ED
:1019800016D1166846F002061660126802F00202CE
:1019900005920A6842F001020A60096801F001013B
:1019A0000591C0218DE83A0004936946FFF724F8B9
:1019B00007B0F0BD166846F001061660126802F026
:1019C000010205920A6842F001020A60096801F00A
:1019D0000101059122218DE83A000494E5E7000019
:1019E00040380240000002400004004070B590F80A
:1019F0003E60044690F83F5090F8423090F8432003
:101A0000022021B104290ED0012E1BD114E0012E99
:101A100018D1012B16D184F83E0084F8420001222F
:101A20000021206820E0012D0CD1012A0AD184F880
:101A30003F0084F8430014E0012D03D1012B01D1B4
:101A4000012A01D0012070BD84F83E0084F83F00D7
:101A500084F8420084F8430001220021206801F04C
:101A600071FF01220421206801F06CFF20680168E9
:101A700041F001010160002070BD704770B504465F
:101A8000006801694FF00005C943890715D4C16892
:101A9000C943890711D4E91E01610120207720681C
:101AA00080698007204602D0FFF7E7FF04E000F0DE
:101AB000C3F8204600F055F9257720680169C9432D
:101AC000490717D4C168C943490713D46FF004010B
:101AD0000161022020772068806910F4407F204651
:101AE00002D0FFF7CAFF04E000F0A6F8204600F09D
:101AF00038F9257720680169C943090716D4C168F8
:101B0000C943090712D46FF008010161042020774E
:101B10002068C0698007204602D0FFF7AEFF04E0CE
:101B200000F08AF8204600F01CF92577206801694A
:101B3000C943C90617D4C168C943C90613D46FF095
:101B400010010161082020772068C06910F4407FEF
:101B5000204602D0FFF791FF04E000F06DF8204628
:101B600000F0FFF8257720680169C943C90708D14B
:101B7000C168C943C90704D1891E0161204600F02C
:101B800055F920680169C943090609D4C168C943E8
:101B9000090605D46FF0800101612046FFF739FD89
:101BA00020680169C943490609D4C168C943490687
:101BB00005D46FF040010161204600F047F920682C
:101BC0000169C94389060BD4C168C943890607D492
:101BD0006FF0200101612046BDE87040FFF71ABD9B
:101BE00070BD000010B586B0044614216846FEF7AB
:101BF000B2FB0E492068884216D10D4800210268C8
:101C000042F002020260006800F0020005904FF40A
:101C1000407000900220CDE901010321CDE90310BD
:101C200069460448FEF7E8FE06B010BD0008004013
:101C30003038024000040240704770B5044690F806
:101C40003C0000260D4601280FD0012084F83C00FE
:101C50006AB1042A1DD0082A2FD00C2A3FD00126B1
:101C6000002084F83C00304670BD022070BD206822
:101C700001F088FE2068816941F0080181612068D7
:101C8000816921F004018161206881692A69114319
:101C900011E0206801F0A6FE2068816941F400612E
:101CA00081612068816921F4806181612068816996
:101CB0002A6941EA02218161D2E7206801F0C8FE69
:101CC0002068C16941F00801C1612068C16921F043
:101CD0000401C1612068C1692A69114311E02068CB
:101CE00001F0EAFE2068C16941F40061C161206829
:101CF000C16921F48061C1612068C1692A6941EA32
:101D00000221C161ACE710B5040003D094F83D0096
:101D100010B107E0012010BD002084F83C002046EF
:101D200000F01EF8022084F83D00211D206801F01B
:101D3000A5FD012084F8460084F83E0084F83F00A9
:101D400084F8400084F8410084F8420084F843009D
:101D500084F8440084F8450084F83D00002010BD5C
:101D60007047704710B50446022249B104290ED0CD
:101D7000082913D094F84100012816D0012010BD85
:101D800094F83E000128F9D184F83E200FE094F841
:101D90003F000128F2D184F83F2008E094F8400089
:101DA0000128EBD184F8402001E084F84120012291
:101DB000206801F0C7FD16492068164A884201D004
:101DC000904203D1436C43F400434364206888424B
:101DD00013D0B0F1804F10D00F4988420DD00F4979
:101DE00088420AD00E49884207D0904205D00D495A
:101DF000884202D00C49884204D1816801F0070171
:101E0000062903D0016841F001010160002010BDE6
:101E100000000140000401400004004000080040B0
:101E2000000C0040004001400018004004480549F3
:101E30000068884203D164210348FEF7B7BB7047AE
:101E4000F00000200010004080080020704770471C
:101E500070470000F8B5016804460868CA684B6915
:101E600010F00F0F4FF0000559D003F0010602F4F7
:101E70009077374365D0C10705D0D10503D5216CD4
:101E800041F001012164410705D5D90703D0216C38
:101E900041F002012164810705D5D90703D0216CE7
:101EA00041F004012164010707D502F0200131430C
:101EB00003D0216C41F008012164216C00293AD043
:101EC000800604D5900602D5204601F0F0FE206879
:101ED0004069216CC0F38010090700D460B320462C
:101EE00001F0B0FE20684069400621D5206814301A
:101EF00050E8001F21F0400140E80012002AF5D10F
:101F0000A06BA8B16C490165A06BFEF7F0FB00283F
:101F100011D0A06B016D01B0BDE8F0400847830609
:101F20000FD593060DD52046BDE8F84001F0BFBEA1
:101F30002046FFF78DFFF8BD2046FFF789FF256497
:101F4000F8BD266B2023012E79D1C60677D5D6069B
:101F500075D50868486800904869400640D5A16B6F
:101F6000086840680004000CEAD0A28D8242E7D9DC
:101F7000E085C869B0F5807F2DD020680C3050E82E
:101F8000001F21F4807140E80012002AF5D120687A
:101F9000143050E8001F21F0010140E80012002A2F
:101FA000F5D12068143050E8001F21F0400140E8CE
:101FB0000012002AF5D184F83E30256320680C30E9
:101FC00050E8001F21F0100140E80012002AF5D16E
:101FD000A06BFEF743FBA08DE18D401A81B229E092
:101FE000A08DE18D401A81B2E08D0028A8D0002993
:101FF000A6D020680C3050E8002F22F4907240E800
:102000000026002EF5D12068143050E8002F22F071
:10201000010240E80026002EF5D184F83E30256309
:1020200020680C3050E8002F22F0100240E8002316
:10203000002BF5D12046FFF70AFFF8BDFFE70506A4
:102040002BD5150629D594F83D002128F5D1A06897
:10205000B0F5805F01D12069B0B1206A411C2162D6
:10206000216800784860E08C401E0004000CE08489
:10207000E3D12068C16821F08001C1602068C16897
:1020800041F04001C160D8E7206A0088C0F3080031
:102090004860206A801C2062E5E74006CDD55006E6
:1020A000CBD5CA68204622F04002CA6084F83D3091
:1020B00000F051FAC1E700004F3B000870B5040082
:1020C00004D094F83D00002510B106E0012070BD59
:1020D00084F83C50204600F023F8242084F83D008A
:1020E0002068C16821F40051C160204601F040FE23
:1020F0002068016921F4904101612068416921F063
:102100002A0141612068C16841F40051C160256421
:10211000202084F83D0084F83E00002070BD0000BF
:102120002DE9F04786B0044614216846FEF713F9FE
:10213000DFF864C1022126685848032207230025DE
:102140008F064FF040094FF4806A66454DD1534EDB
:102150001436D6F800C04CF0100CC6F800C0366833
:1021600006F010060596066846F00106066000684F
:1021700000F00100059050028DE8230069464848B0
:10218000CDE90323FEF738FC474E4648D046C6E962
:10219000035A7561B561F5613562756286E8810241
:1021A0003046FEF787FB08B1FEF7FEF96663B463BD
:1021B0003D4E3C48603678383060C6E90175C6E966
:1021C00003587561B561F561356230467562FEF799
:1021D00071FB08B1FEF7E8F9A66300220221252071
:1021E000B463FEF775FD252051E0DFF8C0C06645F9
:1021F0004FD12A4E1036D6F800C04CF4003CC6F839
:1022000000C0366806F400360596066846F00806F3
:102210000660006800F00800059060208DE823004B
:1022200069462348CDE90323FEF7E6FB1E4E21480D
:10223000C036B846C6E9035A7561B561F5613562C5
:10224000756286E8010357463046FEF733FB08B156
:10225000FEF7AAF96663B4631648174E1838306063
:10226000C6E90185C6E903577561B561F561356257
:1022700030467562FEF71EFB08B1FEF795F9A663BE
:10228000002203212620B463FEF722FD2620FEF75C
:1022900011FD06B0BDE8F087001001403038024063
:1022A00000000240B8640240D80100200044004011
:1022B000000C0240A0600240F802002090F83E307E
:1022C000202B0ED159B152B190F83C30012B08D0DF
:1022D000012380F83C300023036301F0CFBD0120CF
:1022E000704702207047000070B564492DED028BE5
:1022F000006888427DD16248817AA02906D1C17ADE
:10230000604C007B012902D0022973D0A8E05C490F
:102310001128497B06D09FED5C8B12282FD0132803
:1023200057D09DE09FED5A8B56480229456B0068B7
:1023300014D002F0B1FC53EC182B02F0C3FB01F0F7
:10234000AFFF2060284602F0A7FC53EC182B02F0E8
:10235000B9FB00BF01F0A4FF606381E002F09CFCC8
:1023600053EC182B01F0CEFF01F09AFF20602846B5
:1023700002F092FC53EC182B01F0C4FFEAE741484D
:102380000229856B406813D002F086FC53EC182BB1
:1023900002F098FB01F084FF6060284602F07CFCAC
:1023A00053EC182B02F08EFB01F07AFFA06357E08C
:1023B00002F072FC53EC182B01F0A4FF01F070FF47
:1023C0006060284602F068FC53EC182B01F09AFF7D
:1023D000EAE72C480229C56B806817D002F05CFC44
:1023E00053EC182B02F06EFB01F05AFFA060284658
:1023F00001E040E01BE002F04FFC53EC182B02F030
:1024000061FB00BF01F04CFFE06329E002F044FCF7
:1024100053EC182B01F076FF01F042FFA060284634
:1024200002F03AFC53EC182B01F06CFFEAE70128AC
:1024300008D0F3EE040A9FED180A022807D00328FB
:102440000AD00DE09FED150A84ED030A06E084ED45
:10245000030AC4ED100A03E0C4ED030A84ED100A78
:1024600007490422BDEC028B0A31BDE8704001F13E
:102470000E00FFF723BFBDEC028B70BD00100140C2
:1024800038010020800800207B14AE47E17A843FA9
:102490007B14AE47E17A943F0000F04200008C428A
:1024A000704700002DE9F843044690F83D001F46B0
:1024B00016460D4620284CD1C5B1BEB194F83C005B
:1024C000012846D0012084F83C004FF00008C4F8F1
:1024D0004080212084F83D00FEF78CFBA6848146D5
:1024E000E684A068B0F5805F03D004E00120BDE879
:1024F000F883206928B12E465FF0000584F83C80FF
:102500000EE00026FAE78021204601F001FDA0B987
:10251000AEB116F8010B21684860E08C401EE084E3
:10252000E08C4B464FF0000200970028EBD14FF0B3
:102530004001204601F0ECFC30B10320D7E735F82C
:10254000020BC0F30800E6E7202084F83D000020DD
:10255000CDE70220CBE77047FEE700002DE9F0470A
:10256000174C814600216088401E83B22088401E9F
:1025700082B2084600F070F9124F4FF40068002252
:1025800041463846FEF730FB012291023846FEF7FD
:102590002BFB002609E0002503E0484600F0C4FAC2
:1025A0006D1C2088A842F8D8761C6088B042F2D80A
:1025B00041463846BDE8F0470122FEF715BB000052
:1025C000700400200010024010B500F041F90348EB
:1025D0000088BDE8104000F0A7BA000014000020F9
:1025E00010B500F0C3FB00F013F9CF2000F044FA5F
:1025F000002000F025FAC12000F022FA302000F07F
:102600001FFAED2000F038FA642000F019FA0320D8
:1026100000F016FA122000F013FA812000F010FAF0
:10262000E82000F029FA852000F00AFA002000F0E6
:1026300007FA782000F004FACB2000F01DFA3920C8
:1026400000F0FEF92C2000F0FBF9002000F0F8F972
:10265000342000F0F5F9022000F0F2F9F72000F044
:102660000BFA202000F0ECF9EA2000F005FA002037
:1026700000F0E6F9002000F0E3F9C02000F0FCF9DA
:10268000132000F0DDF9C12000F0F6F9132000F06E
:10269000D7F9C52000F0F0F9222000F0D1F935205B
:1026A00000F0CEF9C72000F0E7F9BD2000F0C8F92E
:1026B000212000F0E1F9362000F0DEF9082000F0DA
:1026C000BFF9B62000F0D8F90A2000F0B9F9A2202D
:1026D00000F0B6F93A2000F0CFF9552000F0B0F93B
:1026E000F62000F0C9F9012000F0AAF9302000F02E
:1026F000A7F9B12000F0C0F9002000F0A1F91B20DB
:1027000000F09EF9F22000F0B7F9002000F098F9EF
:10271000262000F0B1F9012000F092F9E02000F04D
:10272000ABF90F2000F08CF9352000F089F9312049
:1027300000F086F90B2000F083F90E2000F080F9FC
:10274000062000F07DF9492000F07AF9A72000F07A
:1027500077F9332000F074F9072000F071F90F20A9
:1027600000F06EF9032000F06BF90C2000F068F91E
:102770000A2000F065F9002000F062F9E12000F085
:102780007BF9002000F05CF90A2000F059F90F20D5
:1027900000F056F9042000F053F9112000F050F930
:1027A000082000F04DF9362000F04AF9582000F0DA
:1027B00047F94D2000F044F9072000F041F91020BE
:1027C00000F03EF90C2000F03BF9322000F038F91F
:1027D000342000F035F90F2000F032F9112000F01C
:1027E0004BF9782001F0EDFB292000F045F902209B
:1027F00000F06EF9012251020448FEF7F5F9BDE838
:1028000010404FF6FF70FFF7A9BE00000010024015
:1028100070B501220D4D140221462846FEF7E4F959
:10282000322001F0CEFB002221462846FEF7DCF9DB
:10283000642001F0C6FB012221462846FEF7D4F9A8
:10284000BDE87040322001F0BCBB00000010024027
:102850000B460246AFF300802DE9F041DFF85080CF
:1028600007461C4615460E4698F80C0000F004F981
:10287000380A00F0E5F8F8B200F0E2F8280A00F0B3
:10288000DFF8E8B200F0DCF898F80E0000F0F4F899
:10289000300A00F0D5F8F0B200F0D2F8200A00F0CB
:1028A000CFF8E0B200F0CCF8BDE8F04100F000B99C
:1028B000700400202DE9FF4F81B08A460EA9DFF891
:1028C000EC9091E83100203800F0FF080AEB04009A
:1028D000401E83B20198B9F800B000EB5400401ECE
:1028E00082B251460198FFF7B7FF002D4FF0000567
:1028F00049D12F4808EB480100EB810A00F27440EF
:1029000000EB081817E00C2C03D018F8057000260F
:102910000CE01AF80570FAE7F80701D0039800E018
:10292000049800F001F97F08761CF6B2B6EB540F5C
:10293000F2D36D1CEDB2A542E5D326E00C2C08D0F5
:102940001C4901EB08100026475D0AEB05000090CA
:1029500014E0174808EB480100EB8100F3E7039807
:10296000A9F80000F80706D0009881B20198304419
:1029700080B2FFF729FE7F08761CF6B2B6EB540F43
:10298000EDD36D1CEDB2A542D8D30B48A9F800B029
:102990004188008805B0491EBDE8F04F401E8BB24B
:1029A00082B200210846FFF757BF00001400002044
:1029B000AE4D000822520008700400202DE9FF4FA0
:1029C00083B00026DDF840801D463446B2464FEA0B
:1029D0005807DFF86490DFF864B028E0281B401E39
:1029E000C1B20A2001F03DFB0599B1FBF0F00A21CC
:1029F000B0FBF1F201FB120026B9691E8C4201DA2C
:102A000028B101263030C0B28DE8010502E0202255
:102A10008DE804050398B9F8003007FB040080B284
:102A2000BBF800200499FFF745FF641CE4B2AC42F8
:102A3000D4D307B0BDE8F08F1600002014000020AA
:102A400070B50C4D06464FF400640022214628461E
:102A5000FEF7CAF8012291022846FEF7C5F8304673
:102A600000F0C8FD21462846BDE870400122FEF76F
:102A7000BBB800000010024070B50C4D06464FF484
:102A80000064002221462846FEF7AEF800226110BD
:102A90002846FEF7A9F8304600F0ACFD214628464E
:102AA000BDE870400122FEF79FB800000010024010
:102AB0000148007AFFF7E0BF7004002010B50C4613
:102AC000FFF7DAFFE0B2BDE81040FFF7B9BF000042
:102AD00014492A228A812B22CA812C220A812E2281
:102AE0004A8110F003038B714FF0F0024FF4A07095
:102AF0000BD0012B0DD0022B0FD0032B11D108804E
:102B00004A80A8213620FFF7D9BF0A8048800821D3
:102B1000F8E708804A806821F4E70A804880C821E5
:102B2000F0E770477004002070B50D4E04464FF476
:102B30000065002229463046FEF756F80122910230
:102B40003046FEF751F8200A00F054FDE0B200F0E4
:102B500051FD29463046BDE870400122FEF744B8D9
:102B600000100240194808B5016841F48001016075
:102B7000016801F480010091016841F400110160D5
:102B80000068002200F40010009002211020FEF7DF
:102B90009FF81020FEF78EF8002202211120FEF788
:102BA00097F81120FEF786F8002211463A20FEF72A
:102BB0008FF83A20FEF77EF8002211464620FEF7F5
:102BC00087F8BDE808404620FEF774B83038024068
:102BD0002DE9F04F87B014216846FDF7BCFB5D4836
:102BE0000025016841F010010160016801F0100149
:102BF0000591016841F080010160016801F08001E8
:102C00000591016841F004010160016801F00401CF
:102C10000591016841F001010160016801F00101C5
:102C20000591016841F002010160016801F00201B3
:102C30000591016841F008010160016801F0080197
:102C40000591016841F0400101600068DFF80891DA
:102C500000F040000590002208214846FDF7C4FF1F
:102C6000DFF8F8A000224FF425415046FDF7BCFFE5
:102C700001224FF4B4415046FDF7B6FF4FF44067D0
:102C8000002239463648FDF7AFFF01223946484653
:102C9000FDF7AAFFDFF8CCB04FF400480022414610
:102CA0005846FDF7A1FF012240212D48FDF79CFF6A
:102CB0000420CDE900050124694602945046FDF741
:102CC0009BFE08260096CDE90145694648460395D6
:102CD000FDF792FECDE90065694623480295FDF7B0
:102CE0008BFE4FF47060CDE900040326CDE9024667
:102CF00069465046FDF780FE4FF470408DE8310084
:102D00000220039069465046FDF776FECDE9007437
:102D1000CDE9024669461248FDF76EFE1120009784
:102D20000394CDE9010569464846FDF765FECDE906
:102D30000084CDE9024669465846FDF75DFE402015
:102D40008DE83100694606480395FDF755FE07B04A
:102D5000BDE8F08F30380240000802400010024009
:102D60000004024000180240000002400F4810B565
:102D70000D4901604FF48271416000218160C160A2
:102D80004FF400720161C0E90512C1610162416244
:102D900081620A21C162FEF76FFA002803D0BDE804
:102DA0001040FDF701BC10BD003001405803002069
:102DB00030B58BB024216846FDF7CDFA00251B4CB9
:102DC00009954FF080400A95C4E900054FF6FF7061
:102DD000C4E9025080202561A0610320CDE90005EF
:102DE0000120CDE9020506210491CDE90550CDE988
:102DF000075169462046FEF75DFD08B1FDF7D4FB9B
:102E0000099509A909480A95FEF706FC08B1FDF7DE
:102E1000CBFB206845622068016841F00101016038
:102E20003C210248FEF7E2FD0BB030BD1800002047
:102E300030B58BB024216846FDF78DFA00251C4C77
:102E400009951A480A95C4E900054FF6FF70C4E9D0
:102E5000025080202561A0610320CDE900050120FA
:102E6000CDE9020506210491CDE90550CDE90751D0
:102E700069462046FEF71EFD08B1FDF795FB099552
:102E800009A90B480A95FEF7C7FB08B1FDF78CFBB3
:102E9000206845622068016841F0010101603C2121
:102EA0000348FEF7A3FD0BB030BD00000004004056
:102EB0006000002010B58EB0002407940894099497
:102EC0000A940B941C2168460C94FDF744FA274899
:102ED000254901600321C0E9011440F2E731C0E94E
:102EE000031480218161FEF7DFFB08B1FDF75CFB75
:102EF0004FF48050079007A91C48FEF76DFC08B1FD
:102F0000FDF752FB1948FEF7FEFE08B1FDF74CFB3A
:102F10000B940BA915480C94FEF77EFB08B1FDF746
:102F200043FB6020CDE900040294082269460F4863
:102F30000494FEF782FE08B1FDF736FB0C226946C9
:102F40000A48FEF77AFE08B1FDF72EFB0821074874
:102F5000FEF708FF0C210548FEF704FF0348FEF7C3
:102F600041FE0EB010BD000000080040A800002087
:102F70001CB500240F4800940D49019401605321B1
:102F8000C0E9011442F20F71C16080218161FEF736
:102F90008BFB08B1FDF708FB0094694605480194D6
:102FA000FEF73AFB002801D0FDF7FEFA1CBD000039
:102FB00000100040F00000200E4810B50C490160E0
:102FC0004FF4E1214160002181600C22C160C0E921
:102FD00004128161C161FFF771F808B1FDF7E4FAED
:102FE00004490422BDE810400E390248FFF766B9D3
:102FF00000100140500100200C4810B50A49016042
:103000004FF4E1314160002181600C22C160C0E9D0
:1030100004128161C161FFF751F8002803D0BDE8B7
:103020001040FDF7C1BA10BD0044004094010020DB
:10303000FEE7FEE7F0B57F282AD83F2928D8841874
:10304000802C02D9C0F18002D2B2CC18402C02D917
:10305000C1F14003DBB20126DFF838E087180B44EA
:1030600014E001F0070206FA02F5CA0804460EEB66
:10307000C21207E012F804C02CEA050C02F804C0E2
:10308000641CE4B2A742F5D8491CC9B28B42E8D807
:10309000F0BD00008004002010B500204FF47A72CB
:1030A0000021491C9142FCD3401C9042F8D30120DE
:1030B00000F0FEF9BDE81040012000F007BA70B53D
:1030C00000240646802525FA04F0304000D0012077
:1030D00000F0FCF9012000F0EBF9002000F0E8F925
:1030E000641CE4B2082CEED3012000F0E1F9BDE845
:1030F0007040002000F0DCB910B5012000F0E6F9C6
:10310000012000F0D5F9002000F0E0F9BDE8104002
:10311000002000F0CDB910B5002000F0D7F9012053
:1031200000F0C6F9BDE81040012000F0CFB910B59D
:10313000FFF7B2FFAE2000F0D7F9D52000F0D4F9A8
:10314000802000F0D1F9A82000F0CEF93F2000F057
:10315000CBF9D32000F0C8F9002000F0C5F94020D9
:1031600000F0C2F9A12000F0BFF9C82000F0BCF9BE
:10317000DA2000F0B9F9122000F0B6F9812000F051
:10318000B3F9CF2000F0B0F9D92000F0ADF9F1206B
:1031900000F0AAF9DB2000F0A7F9302000F0A4F934
:1031A000A42000F0A1F9A62000F09EF98D2000F0E7
:1031B0009BF9142000F098F9BDE81040AF2000F012
:1031C00093B90246012000E05043491EFCD27047EB
:1031D00010B50C4640F0B00000F086F9102040EA2F
:1031E000141000F081F904F00F00BDE8104000F069
:1031F0007BB9000008B5082B0DD0062B0AD10A4B6D
:1032000002EB420203EB4202C03A0092082306227C
:1032100000F07AF808BD054B03EB0212A2F500722C
:10322000102300920822F3E74C6A00085C6400084F
:103230002DE9F04398462DED028BB0EE408AF0EE7A
:10324000608A81B09FED2E0B15468946064653ECE9
:10325000102B51EC180B0A9C01F0F2FB234605D809
:103260002B2249463046FFF7C5FF0AE02D2249468A
:103270003046FFF7BFFF51EC180B01F005F841ECA9
:10328000180B51EC180B01F049FA074630193A4671
:10329000C0B22B464946009400F08EF8681C00FB33
:1032A0000460C0B223462E224946FFF7A3FF3846EA
:1032B00001F078FA53EC182B01F0F8FB41EC180BF5
:1032C00041460A20FFF77DFF074601F06BFA53ECF9
:1032D000182B01F0B7FA01F021FAB0FBF7F107FB68
:1032E0001102AD1C05FB0460C0B243464946009480
:1032F00000F062F801B0BDEC028BBDE8F083000085
:1033000000000000000000002DE9FC4F1F4615469C
:103310000C4606467F284BD83F2C49D8FFF78AFE3B
:10332000791ECA17002001EB52710122DFF884B028
:1033300004F0070902EBE10238E0002332E0F11863
:103340007F2931D800EBD40ABAF1070F30D80BEB44
:10335000CA1E1EF8017010FB05FCCDF804C0DDF894
:103360002C809844CDF800801CF808C00CFA09FCA9
:1033700047EA0C070EF801700AF10107072F0FD872
:103380000EEB0108DDE900C198F8807011F80CC05F
:10339000C9F108012CFA01FC47EA0C0788F8807093
:1033A0005B1CDBB2AB42CAD3401CC0B28242C4DC5D
:1033B000BDE8FC8F800400202DE9F04700241D4665
:1033C00090468A4681460A27089E14E0291B0A2057
:1033D000491EFFF7F6FEB8FBF0F0B0FBF7F107FB74
:1033E000110204FB0690C0B2334651463032FFF75B
:1033F00001FF641CE4B2AC42E8D3BDE8F0872DE9DC
:10340000F0471E46DDF8208014008A468146434678
:1034100004D42B22FFF7EEFE254603E02D22FFF712
:10342000E9FE654200240A2714E0311B0A20491EE8
:10343000FFF7C7FEB5FBF0F0B0FBF7F107FB110299
:10344000641C04FB0890C0B2434651463032FFF77B
:10345000D1FEE4B2B442E8D3BDE8F0872DE9F041F3
:103460001E46154688460746002408E014FB0670F1
:10347000C0B233464146FFF7BDFE641CE4B22A5D8C
:10348000002AF3D1BDE8F08170B5084D0024002179
:103490002046FFF79DFE05EBC410802100F035F8B3
:1034A000641CE4B2082CF2D370BD0000800400203C
:1034B00010B502464FF480610348FDF795FBBDE867
:1034C00010400A2000F08ABD0008024010B50246F4
:1034D0004FF400610348FDF787FBBDE810400A2068
:1034E00000F07CBD0008024010B50446FFF704FE62
:1034F0007820FFF7E4FD0020FFF7E1FD2046FFF70D
:10350000DEFDBDE81040FFF706BE70B50D4606466D
:10351000FFF7F2FD7820FFF7D2FD4020FFF7CFFD47
:10352000002404E0305DFFF7CAFD641CE4B2AC4245
:10353000F8D3BDE87040FFF7EEBDB0F92E1000EEF5
:10354000101AB8EEC00A80ED040AD0ED030A30EE7E
:10355000C00A80ED070AD0ED0A0A30EE801A80ED2D
:103560000A1AD0ED000AD0ED011A60EE800A41EE91
:10357000810A90ED081AD0ED021A30EE411A41EEA0
:10358000810AC0ED060A80ED080ABDEEE00A10EEE1
:10359000101A8185B0F9621000EE101AB8EEC00A58
:1035A00080ED110AD0ED100A30EEC00A80ED140A49
:1035B000D0ED170A30EE801A80ED171AD0ED0D0A03
:1035C000D0ED0E1A60EE800A41EE810A90ED151AD8
:1035D000D0ED0F1A30EE411A41EE810AC0ED130A08
:1035E00080ED150ABDEEE00A10EE101AA0F860108A
:1035F0007047704701B582B04FF47A700090012394
:10360000034A02A90348FDF7FFFE014800780EBDFA
:10361000000000205803002038B504461248134B20
:103620000068B0FBF3F04FF47A7358430090606881
:10363000B0F5827F0DD10B460092002280212046FA
:1036400000F016F870B1606D40F020006065032056
:1036500038BD009830B1401E009020688068C0439B
:103660000006F6D5002038BD1000002000366E019F
:103670002DE9F8431E46914688460446089DFDF70D
:10368000B9FA401B351AFDF7B5FA07462548006818
:10369000C0F3CB30684338E0701C37D0FDF7AAFA8E
:1036A000C01BA84203D215B1009860B32CE020687B
:1036B000416821F0E00141606068B0F5827F0BD184
:1036C000A068B0F5004F02D0B0F5806F04D120683B
:1036D000016821F040010160A06AB0F5005F09D1E6
:1036E0002068016821F4005101602068016841F4FC
:1036F00000510160012084F85100002084F850003E
:103700000320BDE8F8830025401E009020688168F2
:1037100038EA010004D000214945BDD10020F0E77E
:103720000121F9E710000020704700002DE9F04169
:103730000E46224C224D071E4FF480514FF4005884
:103740001DDD01222046FDF74FFA002241462046AA
:10375000FDF74AFA286807644FF480414F00002EB5
:103760001CDD4FF001022046FDF73EFA00223946EB
:103770002046FDF739FA2868C663BDE8F0814FF0AE
:103780000002DFDA2046FDF72FFA012241462046EB
:10379000FDF72AFA296878420864DDE74FF0000255
:1037A000E1DA2046FDF720FA012239462046FDF7EE
:1037B0001BFA29687042C863DFE70000001002406E
:1037C000A8000020FDF71CBA30B593B03021684640
:1037D000FCF7C1FD14210CA8FCF7BDFD1E48002517
:1037E000016841F080510160006800F08050119044
:1037F0001A48016841F4804101600068022400F425
:103800008040119001200090000401908001CDE9DA
:103810000640192008904FF4A870CDE9090404204F
:103820000B906846FDF772FB08B172B6FEE70CA973
:103830000F2081E831004FF4A0500F904FF48050DA
:10384000109005210CA8FDF775FA002801D072B67A
:10385000FEE713B030BD0000403802400070004069
:103860000248016841F470010160704788ED00E092
:103870000148FEF703B90000F0000020F0B502682F
:10388000254C264D264E274F274B4FF0804CA0420B
:1038900009D0604507D0A84205D0B04203D0B84255
:1038A00001D0984204D122F0700E4A6842EA0E021A
:1038B000A0421BD0604519D0A84217D0B04215D005
:1038C000B84213D0984211D0184DA8420ED0184DCE
:1038D000A8420BD0174DA84208D0174DA84205D0DA
:1038E000164DA84202D0164DA84203D122F44075CD
:1038F000CA682A434D6922F080022A4302608A681E
:10390000C2620A688262A04201D0984201D109696C
:10391000016301214161F0BD00000140000400404D
:1039200000080040000C004000040140004001403D
:10393000004401400048014000180040001C0040C5
:103940000020004010B501F01F030121046A9940D6
:103950008C430462016A9A401143016210BD10B5A4
:10396000846842EA032224F47F440A4322438260AB
:1039700010BD826822F070020A4342F007018160A4
:1039800070470000F0B5026A22F001020262036A89
:1039900042688469124E24F073050C682C4323F0AE
:1039A00002058B682B430D4DA84201D0B04205D1D2
:1039B00023F00807CB683B4323F00403A84201D05F
:1039C000B04205D14D6922F4407215438A692A43F9
:1039D00042608461496841630362F0BD00000140B8
:1039E00000040140F0B5026A22F010020262026A8D
:1039F000436884690D6824F4E64444EA05248D682C
:103A000022F0200242EA05120F4D104EA84201D0CA
:103A1000B04206D1CF6822F0800242EA071222F0BB
:103A20004002A84201D0B04207D14D6923F440635F
:103A300043EA85038D6943EA8503436084614968ED
:103A400081630262F0BD00000000014000040140FB
:103A5000F0B5026A22F480720262026A4368C469A5
:103A600022F4007224F073050C68124E2C438D680A
:103A700042EA05220E4DA84201D0B04206D1CF68DD
:103A800022F4006242EA072222F48062A84201D0B6
:103A9000B04207D14D6923F4405343EA05138D69C1
:103AA00043EA05134360C4614968C1630262F0BD23
:103AB000000001400004014030B5026A22F4805247
:103AC0000262046A4268C3690D6823F4E64343EA6C
:103AD00005238D6824F4005444EA0534084DA842B7
:103AE00002D0084DA84204D14D6922F4804242EA36
:103AF00085124260C36149680164046230BD000000
:103B0000000001400004014010B5036A046A24F07B
:103B100001040462846924F0F00444EA021423F0EE
:103B20000A020A438461026210BD10B5036A23F0E1
:103B3000100303628369046A23F4704343EA023288
:103B400024F0A00343EA01118261016210BD10B5A7
:103B5000806B0021C185C184FEF77AF910BD70B574
:103B6000846B2068406994F83D10C0F3C0100025B4
:103B7000212904D118B1E584204600F08AF8206894
:103B8000406994F83E10C0F38010222904D118B186
:103B9000E585204600F056F8206C40F010002064C7
:103BA0002046FEF755F970BD10B50146806B0968D7
:103BB0000968C9052FD40021C18501680C3151E87D
:103BC000002F22F4807241E80023002BF5D1016818
:103BD000143151E8002F22F0010241E80023002BAC
:103BE000F5D10168143151E8002F22F0400241E87C
:103BF0000023002BF5D1202180F83E10016B012914
:103C000009D101680C3151E8002F22F0100241E87F
:103C10000023002BF5D1016B012902D0FEF764FBD4
:103C200010BD818DFEF713F910BD10B5806B016BCF
:103C3000012902D0FEF734FC10BD818D4908FEF742
:103C400006F910BD01680C3151E8002F22F4907282
:103C500041E80023002BF5D10168143151E8002F11
:103C600022F0010241E80023002BF5D1016B01296C
:103C700009D101680C3151E8002F22F0100241E80F
:103C80000023002BF5D1202180F83E100021016394
:103C9000704701680C3151E8002F22F0C00241E862
:103CA0000023002BF5D1202180F83D10704708B586
:103CB00090F83E10222901D0022008BD82684FF4FE
:103CC00080539A4201D1016921B1816A9A421BD085
:103CD0004AB10AE00268816A5268C2F308020A80A7
:103CE000816A891C08E0026972B10268526802F0B8
:103CF0007F020A70816A491C8162C18D491E0904D4
:103D0000090CC18503D019E002685268F1E7016827
:103D1000CA6822F02002CA600168CA6822F4807270
:103D2000CA6001684A6922F001024A61202180F8D4
:103D30003E10016B012903D0FEF7D6FA002008BD22
:103D40000021016301680C3151E8002F22F01002BC
:103D500041E80023002BF5D101680A68D20602D59C
:103D60000A6849680091818DFEF771F8E6E7000066
:103D700070B5044600680169E26821F440511143BE
:103D800001612169A068E269084361691143084340
:103D90002168CA6849F20C639A430243CA602068EA
:103DA0004169A26921F440711143416131492068A0
:103DB000884202D03049884202D1FDF765F801E01F
:103DC000FDF752F8E2690023192164253226B2F585
:103DD000004F626828D0A0FB0101930F9200FCF70E
:103DE00043FA0146B0FBF5F06FF01802504301EBC7
:103DF000800006EB0010B0FBF5F000F0F002B1FB24
:103E0000F5F002EB0012B1FBF5F06FF01803584328
:103E100001EB800006EB0010B0FBF5F000F00F00A6
:103E200021681044886070BDA0FB010192185B41BD
:103E3000FCF71AFA0146B0FBF5F00201B1FBF5F010
:103E40006FF01803584301EB800006EBC000B0FB95
:103E5000F5F000F0F80002EB4002B1FBF5F058433A
:103E600001EB800006EBC000B0FBF5F000F00700AE
:103E7000D6E70000001001400014014038B581620F
:103E800082850025134604460564222084F83E00FE
:103E9000A26B1C48D063A26B1B481064A26B1B482A
:103EA000D064A06B0A4605652168A06B091DFCF76C
:103EB0006BFD206801684068009084F83C502069E0
:103EC00048B120680C3050E8001F41F4807140E890
:103ED0000012002AF5D12068143050E8001F41F08C
:103EE000010140E80012002AF5D12068143050E8A2
:103EF000001F41F0400140E80012002AF5D10020E7
:103F000038BD0000A93B00082B3C00085F3B0008BF
:103F10002DE9F041984617460E460446069D27E0D7
:103F2000681C25D02DB1FCF765FEA0EB0800A84267
:103F30001ED920680C3050E8001F21F4D07140E8F1
:103F40000012002AF5D12068143050E8001F21F03B
:103F5000010140E80012002AF5D1202084F83D003C
:103F600084F83E00002084F83C000320BDE8F08186
:103F70002068006836EA000004D00020B842CFD0A4
:103F80000020F3E70120F9E70148FDF763BF0000D7
:103F9000500100200148FDF75DBF000094010020A2
:103FA000FEE70907090E002804DB00F1E02080F895
:103FB0000014704700F00F0000F1E02080F8141D9D
:103FC000704711B54FF47A7402E0204600F006F80D
:103FD0000099481E0090F8D218BD000071B54FF44A
:103FE00061754FF0E023104E00981AE02C46A04275
:103FF00000D804469869A4EBC40101EB410110EB21
:10400000C10105D49A69824208DA8A42FADA05E0E7
:104010008A1999698142FCDD9142FADC0098001B03
:1040200000900028E2D178BD40900200FCF7F0FD3E
:10403000FFF7CAFBFEF7CCFDFEF794FDFEF796FEF8
:10404000FEF7B6FEFEF7F4FEFEF734FFFEF790FF34
:10405000FEF7B2FFFEF7D0FF00F03AF800F0F8F8F4
:10406000FCE70246012000E05043491EC9B2FBD2E2
:1040700070470000DFED120A9FED120AC0ED000A42
:1040800080ED010A80ED020AC0ED0D0A80ED0E0AF6
:1040900080ED0F0A9FED0C0A80ED030A80ED100AF7
:1040A0009FED0A0A80ED070A80ED080A80ED0A0AF2
:1040B00080ED140A80ED150A80ED170A70470000A4
:1040C000CDCC4C3FCDCC4C3D000048420000000020
:1040D00010B5FFF72CF8FEF783FA0448FFF7CAFF84
:1040E000BDE810400248FDF737BB00008008002003
:1040F000F000002038B50F4D4FF00F04B5F92E2019
:104100000094D00300D552424FF005034FF00F0149
:104110001846FEF753FCB5F962200094D00300D591
:1041200052424FF005034FF01E011846FEF746FCC1
:1041300038BD00008008002038B53E4D08240094AA
:104140000021B5F92E2003230846FFF758F9009403
:10415000B5F96220032310210020FFF750F908234E
:1041600035A200212020FFF779F9082332A210217F
:104170002020FFF773F9286B00F08EFD41EC100B47
:1041800002231A46202100200094FFF751F8686EA0
:1041900000F082FD41EC100B02231A463021002072
:1041A0000094FFF745F8082325A220213020FFF7CF
:1041B00055F93021082322A20846FFF74FF90823BA
:1041C00020A200214820FFF749F9286800F064FD8B
:1041D00041EC100B02230122002158200094FFF72C
:1041E00027F8082318A210214820FFF737F968683C
:1041F00000F052FD41EC100B022301221021582047
:104200000094FFF715F8082310A220214820FFF79B
:1042100025F9A86800F040FD41EC100B02230122B3
:10422000202158200094FFF703F8BDE83840FFF73D
:104230002BB9000080080020722F6D696E0000000D
:104240006D2F7300503A0000493A0000443A0000D4
:1042500010B5FFF74FFFFFF76FFF0A48FFF76DF943
:10426000084CB4F9601034F92C0FFFF75FFAB4F979
:104270003620B4F902004FF49671BDE810400B46A9
:10428000FCF7CEB88008002081F00041704780F034
:104290000040704721F00041704720F00040704717
:1042A00021F00042A2F16052B2F5801F01F00043FC
:1042B00028BFD2F17F6C0BD95FEA001C43EAC2022F
:1042C00042EB507018BF704728BF20F001007047C4
:1042D000B2F5801FBCBF184670474FEA410C1CF571
:1042E000001F02D2084600F04DBD70B500F054FB2F
:1042F00000000089FFF7F6BF4FF00040A0F58000F6
:104300007047000010B591EA030F48BF83F00043E7
:1043100000F1E083841A71EB030C05D2121943EB10
:104320000C03001B61EB0C01DFF824E14FEA115490
:10433000A4EB135C1EEA430F18BF9EEA445F73D0E0
:1043400023EA0E03DCF1200E21EA045143F480132A
:1043500032D322FA0CFE10EB0E0023FA0CFE41EBD6
:104360000E01CCF1200E03FA0EFE10EB0E0051F1FF
:104370000001B1F5801FCCF1200E32D201EB0451C7
:1043800012FA0EF2BDE8104058BF7047401C38BF0B
:104390005FEA420218BF7047002814BF20F00100F6
:1043A00041F100014FEA410313F5001F38BF704788
:1043B000A1F1C04100F03EBB012A43EB0302ACF186
:1043C000200CDCF11F0E32BF4FF0000E23FA0CF36D
:1043D00010EB030041EB0451B4EB115FD0D0A1EB23
:1043E000045101F5801149085FEA300001EB0451E6
:1043F0000ED350F1000038BF12FA0EFE08D1BDE80E
:104400001040C9E7401C38BF5FEA4202CAD1C3E787
:10441000BDE810404FEA410313F5001F38BF704755
:10442000A1F1C04100F006BB9EEA445F08D011EA4A
:104430005E0FBDE8104004BF01F00041002070474E
:10444000BDE8104070B500F0A7FA00BF64FBBE3EA7
:104450000000E0FF491058BFC1F140415B1058BF58
:10446000C3F140438B42EFF3008070472DE9C04118
:1044700030B4DFF8A0C23CEA111418BF3CEA1314B0
:1044800000F0EC8081EA03051CEA111444EAD574BB
:1044900018BF1CEA131500F0C780A4EB05044FF009
:1044A000004545EAC12145EAC32341EA505143EAA8
:1044B000525304F17F74994204F500344FEAC0204E
:1044C0004FEAC22208BF904200F09C804FEA136579
:1044D0000FF24016765D4FEA134506FB05F7C7F16C
:1044E000807706FB07F74FEAD737A7FB03687642CA
:1044F000C8F58038A7FB06CE38BFA8F1010807FB36
:1045000008E64FF0000EA6FB028CE6FB03CEDCF1C2
:10451000000CCEF1004E38BFAEF1010EA6FB0C58D8
:104520004FF000074FF00005E6FB0E87A1FB08C621
:10453000A0FB07CE16EB0E0645F10005E1FB076573
:1045400015F1E04E7EBFA4F580345FEA46066D416A
:1045500016F1800745F100054FEA17274FEA066676
:1045600047EA0567A6F1DE46B6F1805F4FEA1525FA
:104570001FD9384624F0010C05EBC471BCF1FE6F65
:1045800001EB0C1102D8F0BCBDE8008124425CBFF5
:1045900001F5801E9EEAC47F02D4F0BCBDE8008114
:1045A000244238D4F0BCA1F1C041BDE8004100F084
:1045B00041BA4FEAD22242EA43524FEAD323A7FB41
:1045C00002864FEAD02040EA415007FB03661EEA0C
:1045D0000E0F4FEAD12105FB026658BFA6EB00562D
:1045E000B6EB00564FEA520E4EEAC37E18EB0E0EA3
:1045F00056EB530EBDD518EB02085E417F1C55F1FA
:104600000005B6E74FF480154FF000074FF00006A5
:104610004FF00008ADE7F0BC4FF0000001F1C041E1
:1046200001F00041BDE8008111EA0C1F0CEA1315EE
:1046300000D00CE013EA0C1F00F025804FF00000C2
:10464000F0BC81EA030101F00041BDE80081F0BC4B
:10465000BDE8004181EA030100F0ECB9F0BCBDE81F
:10466000004170B500F098F9097EFC3E00F007B8F3
:1046700081EA03014FF0000001F00041704781EA38
:10468000030100F0D7B9F0BCBDE800414FF00000D5
:1046900021497047FFFDFBF9F7F5F4F2F0EEEDEB81
:1046A000E9E8E6E4E3E1E0DEDDDBDAD8D7D5D4D330
:1046B000D1D0CFCDCCCBCAC8C7C6C5C4C2C1C0BF7C
:1046C000BEBDBCBBBAB9B8B7B6B5B4B3B2B1B0AF82
:1046D000AEADACABAAA9A8A8A7A6A5A4A3A3A2A166
:1046E000A09F9F9E9D9C9C9B9A9999989797969521
:1046F00095949393929191908F8F8E8E8D8C8C8BBD
:104700008B8A898988888787868585848483838244
:10471000828181800000FF070000F87F4FEA11537B
:10472000A3F58063D3F11E03A8BFD3F1200C08DBEF
:104730004FF0004242EAC12252EA505232FA03F0EC
:10474000704709420BD4102BC4BF0020704703F5FB
:10475000787CBCF1FF3F05D04FF0FF3070474FF041
:104760000000704770B500F017F900BF499224802F
:1047700000207047F0E710F0004248BF4042B0FA16
:1047800080F310FA03F10AD0C3F11D0303F580632F
:104790004FEA415002EB035202EBD12170474FF038
:1047A00000007047B0FA80F310FA03F10AD0C3F1A9
:1047B0001D0303F580634FEA41504FEA035202EBB9
:1047C000D12170474FF000007047000051EA030C00
:1047D00017D41CF5801F58BFBCF5801F00F1068060
:1047E000994218BF704708BF9042704707D711F52C
:1047F000801F58BF13F5801F19D499427047894212
:1048000070471CF5801F08D5BCF5801FF7D58B427B
:1048100018BF704708BF824270474FF4001C1CEB62
:10482000410F38BF1CEB430F01D28B42704770B56C
:1048300000F0B2F8922449004FF000514FF080533D
:10484000FFF708BEDFF848C170B51CEA111E1EBF95
:104850001CEA13159EEA0C0F95EA0C0F00F06F800E
:1048600081EA030423EA4C134EEAD47E21EA4C1178
:1048700041F4801143F48013AE44A1FB024CA0FB31
:104880000365AEF17F7E361955EB0C05A1FB034C99
:104890004CF10003A0FB021C16EB0C06654153F122
:1048A0000003094218BF46F0010613F4007F0BD144
:1048B0004FEA03314FEA0530340341EA155140EA2B
:1048C00016506FF003020AE04FEAC3214FEAC520F9
:1048D000F40241EA555140EA56506FF0020202EBF1
:1048E0002E4201EB025585EACE710AD05FEA440CF4
:1048F00018BF24F0004450F1000041F1000120EA0B
:10490000D47040F2FE7C624500D270BDA84214BF54
:104910004FF080444FF04044002E08BF0024BEF109
:10492000806FA8BFA1F1C041BDE8704080F28280D5
:104930004FF0000001F1C04101F0004170479EEAD4
:104940000C0F0CEA131518BF95EA0C0F06D04FF0A8
:10495000000081EA030E0EF0004170BD00F01CF86B
:104960008900013E00F007B800F009B84FEA430C97
:104970005FEA5C5C08D081EA030100F05BB84FEAB3
:10498000410C5FEA5C5CF6D14FF0000001497047D2
:104990000000FF070000F87F0EF1020E2EF0030E5C
:1049A0005EF8046B364205D4012A43EB030515F586
:1049B000001F12D8012841EB010C1CF5001F0CD878
:1049C0000ED14FEAD17C15F5001F0CEB4C0C0CF10D
:1049D000020C08BF4CEBD37C04E04FF0080C01E064
:1049E0004FEAD37C0CEB4C0526FA05F606F00706D9
:1049F000B6F1040C06D20EEB860CBDE870404CF00C
:104A0000010C6047DFE80CF0090B02024FF0004197
:104A10004FF00000A1F5002170BD19461046012895
:104A200051EB010418BFD4F5001484BF002001F03D
:104A3000004170BD0808A0F500114FEA3101704730
:104A400053EA010C17D41CF5801F58BFBCF5801F1A
:104A500000F106808B4218BF704708BF8242704742
:104A600007D713F5801F58BF11F5801F19D48B424B
:104A700070479B4270471CF5801F08D5BCF5801F0E
:104A8000F7D5994218BF704708BF904270474FF45E
:104A9000001C1CEB430F38BF1CEB410F01D29942A5
:104AA00070470FB40CBC03BCFFF7C1BE91EA030F03
:104AB00010B581F000413FF52DAC83F0004300F0CC
:104AC00009B8000010B591EA030F48BF83F0004316
:104AD0003FF520AC841A71EB030C07D212198CF04D
:104AE000004C43EB0C03001B61EB0C01DFF8A4E16D
:104AF0004FEA1154A4EB135C1EEA430F18BF9EEA61
:104B0000445F00F0B08023EA6E03524221EA045170
:104B1000C3EB6E0338BF5B1EDCF1200E25D322FAF7
:104B20000CFE10EB0E0043FA0CFE41EB0E01CCF133
:104B3000200E03FA0EFE10EB0E0051F10001CCF135
:104B4000200E29D412FA0EF201EB0451BDE81040F8
:104B500058BF7047401C1CBFB2F1004F704700287F
:104B60000CBF491C20F00100704712EB020E43EB12
:104B7000030218BF4FF0010E4EEA4202ACF1200CC6
:104B8000DCF11E0E54D943FA0CFE10EB0E0051F16D
:104B9000FF31CCF11E0ED5D50EF1010E12FA0EFE2C
:104BA000404141EB010101EB445C5FEA5C5C10D9E0
:104BB00010EBDE7001EB045138BFBEF1004FBDE8D1
:104BC000104018BF704700280CBF491C20F001009E
:104BD000704730D24FEAD42C11F5001124F4006450
:104BE0001BD0B1FA81F20B3AA41AA41ED2F1200311
:104BF000914030FA03F31943904001EBCC71002C43
:104C000001EB0451BDE81040A8BF704701F1C0415D
:104C10004FF0000001F000417047B0FA80F310FA45
:104C200003F100D110BDE41A173C4805C90AE4E7B6
:104C300001EB045110BD491001EB0451BDE81040D7
:104C40004FEA300002E04FF0000170474A0008BF11
:104C50000042F8D0B2F5001F28BF704701F00041B4
:104C60004FF0000070479EEA445F07D011EA5E0FE4
:104C7000BDE8104004BF002100207047BDE810408F
:104C800070B5FFF789FE00BF40DFF63E83F00041BC
:104C9000104670470000E0FF43004FEAD30C4FEA94
:104CA0003C0C43401FBF40070CF1605113F0FE4F16
:104CB00070471CF0006F03D100200CF000417047DA
:104CC0000CF0004343EA507010B540EACC0000F00D
:104CD0000EF800BF000000924FEA0001FFF7AABEE5
:104CE0004FF000414FF00000A1F5002170470EF198
:104CF000020E2EF0030E5EF8044B244204D44FEA59
:104D00004102B2F17F4F11D84FEA4003B3F17F4F18
:104D10000CD80ED14FEAD07CB2F17F4F0CEB4C0C8B
:104D20000CF1020C08BF4CEBD17C04E04FF0080CF6
:104D300001E04FEAD17C0CEB4C0324FA03F404F0BD
:104D40000704B4F1040C06D20EEB840CBDE810404D
:104D50004CF0010C6047DFE80CF0070802024FF04E
:104D60000040A0F5800010BD0846420018BFD2F1F7
:104D7000807288BF00F0004010BD4FF04070E1EE3F
:104D8000100A7047FF2141EAD050C0057047000665
:104D900010160006101600000000000000000102BE
:104DA00003040607080900000000010203040000D4
:104DB00000000000000000000000000004040404E3
:104DC00004040004000000140A0A000000000000AF
:104DD0000000000014143F140A3F0A0A00000004F7
:104DE0001E1505060C14150F0400000012150D0AFF
:104DF000142C2A1200000000040A0A1E1515093698
:104E0000000000020201000000000000000000207D
:104E10001008080808080810200000020408080804
:104E200008080804020000000004150E0E15040016
:104E3000000000000404041F04040400000000003B
:104E40000000000000000002020100000000001F3E
:104E50000000000000000000000000000000000250
:104E6000000000100808080404020202010000000B
:104E70000E1111111111110E00000000040604049E
:104E80000404040E000000000E1111080402011FAA
:104E9000000000000E11100C1010110E0000000098
:104EA000080C0A0A091E0818000000001F01010F63
:104EB0001010110E000000000E09010F1111110E4B
:104EC000000000001F09080404040404000000009E
:104ED0000E11110E1111110E000000000E11111112
:104EE0001E10120E0000000000000400000000046C
:104EF0000000000000000004000000040400002086
:104F000010080402040810200000000000001F0028
:104F1000001F000000000002040810201008040216
:104F2000000000000E11110804040004000000003D
:104F30000E111915151D011E0000000004040C0AB5
:104F40000A1E1233000000000F12120E1212120F6E
:104F5000000000001E1101010101110E00000000FF
:104F60000F1212121212120F000000001F120A0E6E
:104F70000A02121F000000001F120A0E0A02020796
:104F8000000000001C1201013911120C0000000089
:104F90003312121E12121233000000001F04040408
:104FA0000404041F000000003E080808080808095F
:104FB0000700000037120A060A0A12370000000034
:104FC000070202020202223F000000001B1B1B1B03
:104FD00015151515000000003B1216161A1A1217A7
:104FE000000000000E1111111111110E000000003F
:104FF0000F12120E02020207000000000E11111122
:105000001117190E180000000F12120E0A12123793
:10501000000000001E1101060810110F0000000022
:105020001F1504040404040E0000000033121212C1
:105030001212120C000000003312120A0A0C0404AF
:10504000000000001515150E0A0A0A0A00000000EB
:105050001B0A0A04040A0A1B000000001B0A0A04B7
:105060000404040E000000001F0908040402121FBB
:105070000000001C04040404040404041C000002D6
:1050800002020404080808100000000E08080808BE
:10509000080808080E0000040A00000000000000D4
:1050A000000000000000000000000000003F0004BD
:1050B0000000000000000000000000000000000CE4
:1050C000121C123C000000000302020E1212120E0B
:1050D000000000000000001C1202021C0000000082
:1050E0001810101C1212123C000000000000000CEE
:1050F000121E021C000000003804041E0404041EDA
:10510000000000000000003C120C021E221C0000E7
:105110000302020E12121237000000000400000603
:105120000404040E000000000800000C0808080831
:10513000080700000302023A0A0E123700000000BE
:10514000070404040404041F000000000000000F12
:1051500015151515000000000000000F121212377F
:10516000000000000000000C1212120C00000000F1
:105170000000000F1212120E020700000000001CB7
:105180001212121C103800000000001B0602020759
:10519000000000000000001E020C101E00000000B5
:1051A0000004040E04040418000000000000001BAA
:1051B0001212123C0000000000000037120A0C041A
:1051C0000000000000000015150E0A0A0000000093
:1051D0000000001B0A040A1B00000000000000374A
:1051E000120A0C04040300000000001E0804041E40
:1051F0000000001808080804080808081800080833
:105200000808080808080808080800060404040834
:105210000404040406000225180000000000000039
:10522000000000000000000000000000000000007E
:105230000000000000080808080808080000181806
:10524000000000486C241200000000000000000074
:1052500000000000002424247F1212127F12121278
:1052600000000000081C2A2A0A0C1828282A2A1CD8
:10527000080800000022251515152A5854545422F8
:1052800000000000000C1212120A76252911916EFE
:1052900000000006060403000000000000000000FB
:1052A000000000402010100808080808081010200E
:1052B0004000000204080810101010101008080424
:1052C00002000000000008086B1C1C6B08080000AE
:1052D000000000000000080808087F08080808000F
:1052E00000000000000000000000000000000606B2
:1052F00004030000000000000000FE0000000000A9
:105300000000000000000000000000000000060691
:105310000000000080404020201010080804040213
:105320000200000000182442424242424242241835
:105330000000000000080E08080808080808083ED9
:1053400000000000003C4242422020100804427E3F
:1053500000000000003C4242201820404042221C35
:105360000000000000203028242422227E20207803
:1053700000000000007E0202021A26404042221C69
:105380000000000000382402021A2642424224187B
:1053900000000000007E22221010080808080808FB
:1053A00000000000003C4242422418244242423C99
:1053B0000000000000182442424264584040241C6F
:1053C000000000000000000018180000000018187D
:1053D00000000000000000000008000000000008BD
:1053E00008040000004020100804020408102040B7
:1053F00000000000000000007F0000007F000000AF
:1054000000000000000204081020402010080402E0
:1054100000000000003C42424640201010001818D6
:1054200000000000001C225A555555552D42221CE3
:1054300000000000000808181414243C224242E72F
:1054400000000000001F2222221E22424242221F90
:1054500000000000007C4242010101010142221CC7
:1054600000000000001F2242424242424242221FEC
:1054700000000000003F4212121E12120242423F80
:1054800000000000003F4212121E12120202020728
:1054900000000000003C2222010101712122221C97
:1054A0000000000000E7424242427E42424242E7A0
:1054B00000000000003E0808080808080808083E28
:1054C00000000000007C10101010101010101010C0
:1054D000110F0000007722120A0E0A121222227700
:1054E0000000000000070202020202020202427FE4
:1054F000000000000077363636362A2A2A2A2A6B20
:105500000000000000E346464A4A52525262624797
:1055100000000000001C2241414141414141221C48
:1055200000000000003F424242423E0202020207E7
:1055300000000000001C2241414141414D53321CFA
:1055400060000000003F4242423E1212222242C747
:1055500000000000007C4242020418204042423E0B
:1055600000000000007F4908080808080808081C17
:105570000000000000E74242424242424242423CB6
:105580000000000000E742422224241414180808F6
:1055900000000000006B4949494955553622222236
:1055A0000000000000E7422424181818242442E7D1
:1055B0000000000000772222141408080808081CC4
:1055C00000000000007E2120101008040442423F29
:1055D00000000078080808080808080808080808F3
:1055E000780000000202040408080810102020209F
:1055F0004040001E1010101010101010101010104D
:105600001E00003844000000000000000000000000
:10561000000000000000000000000000000000008A
:1056200000FF00060800000000000000000000006D
:105630000000000000000000003C4278444242FCB0
:105640000000000000030202021A26424242261A0B
:10565000000000000000000000384402020244384C
:10566000000000000060404040784442424264D85C
:105670000000000000000000003C427E0202423CAC
:105680000000000000F08808087E08080808083EAE
:105690000000000000000000007C22221C023C42AE
:1056A000423C000000030202023A4642424242E704
:1056B00000000000000C0C00000E08080808083E5E
:1056C0000000000000303000003820202020202082
:1056D000221E0000000302020272120A1612227732
:1056E00000000000000E0808080808080808083E26
:1056F0000000000000000000007F9292929292B79A
:105700000000000000000000003B4642424242E729
:105710000000000000000000003C42424242423CC7
:105720000000000000000000001B26424242221E32
:105730000207000000000000007844424242447822
:1057400040E000000000000000774C040404041F47
:105750000000000000000000007C42023C40423E8D
:105760000000000000000008083E08080808083093
:10577000000000000000000000634242424262DC80
:10578000000000000000000000E742242414080884
:10579000000000000000000000EB4949555522229E
:1057A0000000000000000000007624181818246E85
:1057B000000000000000000000E742242414180844
:1057C0000807000000000000007E22100808447E48
:1057D000000000C020202020201020202020202099
:1057E000C000101010101010101010101010101019
:1057F000101000060808080808100808080808081B
:1058000006000C32C2000000000000000000000092
:105810000000C9EE000027FC140414A48110420803
:105820004040104017FC2040E0E0215022482C4628
:1058300020400040DBDA110411241124112411242A
:10584000FD24112411241124112411241D24E124E8
:10585000422402040404CAD00200010000007FFCBC
:105860000100010001003FF821082108210821085A
:105870002128211001000100C8AB000000000180B8
:1058800002400430180860061FF901000100010001
:105890003FF80100010001007FFEB6AF00000000EC
:1058A00000203E20007C002200227F2210221022B5
:1058B00012221222224223423D82009CB5E70000C0
:1058C000010001001FF0610C410441047FFC410410
:1058D000410441047FFC01000102010201FCD7D315
:1058E000000000003FF80010006000800100008010
:1058F0007FFE00400040002000200020184007806C
:10590000BCBC10201020102013FEFC201020102002
:1059100015FC18843088D048105010201050518841
:105920002606CAF501000120011001107FFC03804A
:1059300005400540092011102108410481020100A1
:1059400001000100D3D002000200FFFE04000400A9
:105950000FF0081018102FF0481088100FF00810E2
:10596000081008500820CFDE00007BF84A085208D3
:1059700053F8620852084BF84A444A486A305220A9
:105980004210428843064200B9AB00800480048084
:1059900008400840102020104208820604000440FD
:1059A000082010203FF010100000CBBE00003FF890
:1059B000000800087FE8000800081F881088108889
:1059C000108810881F88108800280010BBB600803F
:1059D0000080FC8004FC050449082A401440104063
:1059E00028A024A045108110020804040802D3ADA9
:1059F00000002080133C122402240224F2241224EA
:105A0000122412B4132812201020282047FE000070
:105A1000C4FA0900090011FC320454489950114895
:105A2000124414441140108002005104511290128B
:105A30000FF0B4BF00000020102013FE2020262409
:105A40004A247A241224222423FC7C2000220422CB
:105A50007822003CC9AB0000000004000FF01020C9
:105A600020207FFC20842084208420843FF8200094
:105A7000200220021FFECCEE00000000204023FE8A
:105A8000204079FC220423FC220423FC220423FC72
:105A90003A0465FA01980204B3E400000100010031
:105AA0007FFE02200410040808043FFC0442044066
:105AB0000440044208421042607EBED8000000004C
:105AC000207E3E804880488048FE48827F8208824F
:105AD0000C8214FA12842280218040FED0CE000075
